{
  "contractName": "Election",
  "abi": [
    {
      "inputs": [],
      "stateMutability": "nonpayable",
      "type": "constructor"
    },
    {
      "anonymous": false,
      "inputs": [
        {
          "indexed": false,
          "internalType": "uint256",
          "name": "highest_votes",
          "type": "uint256"
        },
        {
          "indexed": false,
          "internalType": "string",
          "name": "name",
          "type": "string"
        }
      ],
      "name": "Leader",
      "type": "event"
    },
    {
      "anonymous": false,
      "inputs": [
        {
          "indexed": false,
          "internalType": "uint256",
          "name": "candidate_id",
          "type": "uint256"
        },
        {
          "indexed": false,
          "internalType": "string",
          "name": "name",
          "type": "string"
        },
        {
          "indexed": false,
          "internalType": "uint256",
          "name": "total_vote",
          "type": "uint256"
        }
      ],
      "name": "Regestering_candidate",
      "type": "event"
    },
    {
      "anonymous": false,
      "inputs": [
        {
          "indexed": false,
          "internalType": "uint256",
          "name": "id",
          "type": "uint256"
        }
      ],
      "name": "Voted",
      "type": "event"
    },
    {
      "inputs": [
        {
          "internalType": "uint256",
          "name": "",
          "type": "uint256"
        }
      ],
      "name": "Candidates",
      "outputs": [
        {
          "internalType": "string",
          "name": "name",
          "type": "string"
        },
        {
          "internalType": "uint256",
          "name": "vote_count",
          "type": "uint256"
        },
        {
          "internalType": "uint256",
          "name": "id",
          "type": "uint256"
        }
      ],
      "stateMutability": "view",
      "type": "function",
      "constant": true
    },
    {
      "inputs": [
        {
          "internalType": "address",
          "name": "",
          "type": "address"
        }
      ],
      "name": "candidate_exist",
      "outputs": [
        {
          "internalType": "bool",
          "name": "",
          "type": "bool"
        }
      ],
      "stateMutability": "view",
      "type": "function",
      "constant": true
    },
    {
      "inputs": [],
      "name": "candidates_count",
      "outputs": [
        {
          "internalType": "uint256",
          "name": "",
          "type": "uint256"
        }
      ],
      "stateMutability": "view",
      "type": "function",
      "constant": true
    },
    {
      "inputs": [],
      "name": "contractOwner",
      "outputs": [
        {
          "internalType": "address",
          "name": "",
          "type": "address"
        }
      ],
      "stateMutability": "view",
      "type": "function",
      "constant": true
    },
    {
      "inputs": [],
      "name": "the_one",
      "outputs": [
        {
          "internalType": "string",
          "name": "name",
          "type": "string"
        },
        {
          "internalType": "uint256",
          "name": "votes",
          "type": "uint256"
        }
      ],
      "stateMutability": "view",
      "type": "function",
      "constant": true
    },
    {
      "inputs": [
        {
          "internalType": "address",
          "name": "",
          "type": "address"
        }
      ],
      "name": "voters",
      "outputs": [
        {
          "internalType": "bool",
          "name": "",
          "type": "bool"
        }
      ],
      "stateMutability": "view",
      "type": "function",
      "constant": true
    },
    {
      "inputs": [
        {
          "internalType": "address",
          "name": "_add",
          "type": "address"
        },
        {
          "internalType": "string",
          "name": "_name",
          "type": "string"
        }
      ],
      "name": "add_candidate",
      "outputs": [],
      "stateMutability": "nonpayable",
      "type": "function"
    },
    {
      "inputs": [
        {
          "internalType": "uint256",
          "name": "_id",
          "type": "uint256"
        }
      ],
      "name": "add_vote",
      "outputs": [],
      "stateMutability": "nonpayable",
      "type": "function"
    },
    {
      "inputs": [],
      "name": "leader",
      "outputs": [],
      "stateMutability": "nonpayable",
      "type": "function"
    }
  ],
  "bytecode": "0x608060405234801561001057600080fd5b5033600360006101000a81548173ffffffffffffffffffffffffffffffffffffffff021916908373ffffffffffffffffffffffffffffffffffffffff160217905550611181806100616000396000f3fe608060405234801561001057600080fd5b50600436106100935760003560e01c806356e91c6e1161006657806356e91c6e14610120578063a3ec138d1461013c578063ce606ee01461016c578063d10e6e2a1461018a578063f94c4a5f146101a957610093565b8063290e92121461009857806340eedabb146100ca57806346e5ced9146100d45780634e974b75146100f0575b600080fd5b6100b260048036038101906100ad91906109fa565b6101c7565b6040516100c193929190610acf565b60405180910390f35b6100d2610279565b005b6100ee60048036038101906100e991906109fa565b610405565b005b61010a60048036038101906101059190610b6b565b6105a7565b6040516101179190610bb3565b60405180910390f35b61013a60048036038101906101359190610d03565b6105c7565b005b61015660048036038101906101519190610b6b565b610827565b6040516101639190610bb3565b60405180910390f35b610174610847565b6040516101819190610d6e565b60405180910390f35b61019261086d565b6040516101a0929190610d89565b60405180910390f35b6101b1610907565b6040516101be9190610db9565b60405180910390f35b60046020528060005260406000206000915090508060000180546101ea90610e03565b80601f016020809104026020016040519081016040528092919081815260200182805461021690610e03565b80156102635780601f1061023857610100808354040283529160200191610263565b820191906000526020600020905b81548152906001019060200180831161024657829003601f168201915b5050505050908060010154908060020154905083565b60008060405180602001604052806000815250905060005b60025481101561038757600460008281526020019081526020016000206001015483101561037457600460008281526020019081526020016000206001015492506004600082815260200190815260200160002060000180546102f390610e03565b80601f016020809104026020016040519081016040528092919081815260200182805461031f90610e03565b801561036c5780601f106103415761010080835404028352916020019161036c565b820191906000526020600020905b81548152906001019060200180831161034f57829003601f168201915b505050505091505b808061037f90610e64565b915050610291565b506040518060400160405280828152602001838152506000808201518160000190805190602001906103ba92919061090d565b50602082015181600101559050507fa131d2ca290202edeaf3d998ba980d702c79ff041d85fb96536ffb6152cd722b82826040516103f9929190610ead565b60405180910390a15050565b60001515600560003373ffffffffffffffffffffffffffffffffffffffff1673ffffffffffffffffffffffffffffffffffffffff16815260200190815260200160002060009054906101000a900460ff16151514610498576040517f08c379a000000000000000000000000000000000000000000000000000000000815260040161048f90610f29565b60405180910390fd5b600081101580156104aa575060025481105b6104e9576040517f08c379a00000000000000000000000000000000000000000000000000000000081526004016104e090610f95565b60405180910390fd5b6001600560003373ffffffffffffffffffffffffffffffffffffffff1673ffffffffffffffffffffffffffffffffffffffff16815260200190815260200160002060006101000a81548160ff02191690831515021790555060046000828152602001908152602001600020600101600081548092919061056890610e64565b91905055507f7f511e347bf51eed3be100b3194247d5207f05f3b33de7d31e3e8ee73199a0498160405161059c9190610db9565b60405180910390a150565b60066020528060005260406000206000915054906101000a900460ff1681565b3373ffffffffffffffffffffffffffffffffffffffff16600360009054906101000a900473ffffffffffffffffffffffffffffffffffffffff1673ffffffffffffffffffffffffffffffffffffffff1614610657576040517f08c379a000000000000000000000000000000000000000000000000000000000815260040161064e90611027565b60405180910390fd5b8160001515600660008373ffffffffffffffffffffffffffffffffffffffff1673ffffffffffffffffffffffffffffffffffffffff16815260200190815260200160002060009054906101000a900460ff161515146106eb576040517f08c379a00000000000000000000000000000000000000000000000000000000081526004016106e2906110b9565b60405180910390fd5b604051806060016040528083815260200160008152602001600254815250600460006002548152602001908152602001600020600082015181600001908051906020019061073a92919061090d565b5060208201518160010155604082015181600201559050506002600081548092919061076590610e64565b91905055506001600660008573ffffffffffffffffffffffffffffffffffffffff1673ffffffffffffffffffffffffffffffffffffffff16815260200190815260200160002060006101000a81548160ff0219169083151502179055507e5d6dff1b2a519f04c49dd75e895e54d03d250a087d86be2fb1fe9f0a4596b9600254836004600060016002546107f991906110d9565b81526020019081526020016000206001015460405161081a9392919061110d565b60405180910390a1505050565b60056020528060005260406000206000915054906101000a900460ff1681565b600360009054906101000a900473ffffffffffffffffffffffffffffffffffffffff1681565b600080600001805461087e90610e03565b80601f01602080910402602001604051908101604052809291908181526020018280546108aa90610e03565b80156108f75780601f106108cc576101008083540402835291602001916108f7565b820191906000526020600020905b8154815290600101906020018083116108da57829003601f168201915b5050505050908060010154905082565b60025481565b82805461091990610e03565b90600052602060002090601f01602090048101928261093b5760008555610982565b82601f1061095457805160ff1916838001178555610982565b82800160010185558215610982579182015b82811115610981578251825591602001919060010190610966565b5b50905061098f9190610993565b5090565b5b808211156109ac576000816000905550600101610994565b5090565b6000604051905090565b600080fd5b600080fd5b6000819050919050565b6109d7816109c4565b81146109e257600080fd5b50565b6000813590506109f4816109ce565b92915050565b600060208284031215610a1057610a0f6109ba565b5b6000610a1e848285016109e5565b91505092915050565b600081519050919050565b600082825260208201905092915050565b60005b83811015610a61578082015181840152602081019050610a46565b83811115610a70576000848401525b50505050565b6000601f19601f8301169050919050565b6000610a9282610a27565b610a9c8185610a32565b9350610aac818560208601610a43565b610ab581610a76565b840191505092915050565b610ac9816109c4565b82525050565b60006060820190508181036000830152610ae98186610a87565b9050610af86020830185610ac0565b610b056040830184610ac0565b949350505050565b600073ffffffffffffffffffffffffffffffffffffffff82169050919050565b6000610b3882610b0d565b9050919050565b610b4881610b2d565b8114610b5357600080fd5b50565b600081359050610b6581610b3f565b92915050565b600060208284031215610b8157610b806109ba565b5b6000610b8f84828501610b56565b91505092915050565b60008115159050919050565b610bad81610b98565b82525050565b6000602082019050610bc86000830184610ba4565b92915050565b600080fd5b600080fd5b7f4e487b7100000000000000000000000000000000000000000000000000000000600052604160045260246000fd5b610c1082610a76565b810181811067ffffffffffffffff82111715610c2f57610c2e610bd8565b5b80604052505050565b6000610c426109b0565b9050610c4e8282610c07565b919050565b600067ffffffffffffffff821115610c6e57610c6d610bd8565b5b610c7782610a76565b9050602081019050919050565b82818337600083830152505050565b6000610ca6610ca184610c53565b610c38565b905082815260208101848484011115610cc257610cc1610bd3565b5b610ccd848285610c84565b509392505050565b600082601f830112610cea57610ce9610bce565b5b8135610cfa848260208601610c93565b91505092915050565b60008060408385031215610d1a57610d196109ba565b5b6000610d2885828601610b56565b925050602083013567ffffffffffffffff811115610d4957610d486109bf565b5b610d5585828601610cd5565b9150509250929050565b610d6881610b2d565b82525050565b6000602082019050610d836000830184610d5f565b92915050565b60006040820190508181036000830152610da38185610a87565b9050610db26020830184610ac0565b9392505050565b6000602082019050610dce6000830184610ac0565b92915050565b7f4e487b7100000000000000000000000000000000000000000000000000000000600052602260045260246000fd5b60006002820490506001821680610e1b57607f821691505b60208210811415610e2f57610e2e610dd4565b5b50919050565b7f4e487b7100000000000000000000000000000000000000000000000000000000600052601160045260246000fd5b6000610e6f826109c4565b91507fffffffffffffffffffffffffffffffffffffffffffffffffffffffffffffffff821415610ea257610ea1610e35565b5b600182019050919050565b6000604082019050610ec26000830185610ac0565b8181036020830152610ed48184610a87565b90509392505050565b7f54686520766f74652068617320616c7265616479206265656e20636173746564600082015250565b6000610f13602083610a32565b9150610f1e82610edd565b602082019050919050565b60006020820190508181036000830152610f4281610f06565b9050919050565b7f496e76616c6964206f7074696f6e000000000000000000000000000000000000600082015250565b6000610f7f600e83610a32565b9150610f8a82610f49565b602082019050919050565b60006020820190508181036000830152610fae81610f72565b9050919050565b7f596f7520617265206e6f7420617574686f726973656420746f2070726f63656560008201527f6400000000000000000000000000000000000000000000000000000000000000602082015250565b6000611011602183610a32565b915061101c82610fb5565b604082019050919050565b6000602082019050818103600083015261104081611004565b9050919050565b7f5468652063616e64696461746520697320616c7265616479205265676973746560008201527f7265640000000000000000000000000000000000000000000000000000000000602082015250565b60006110a3602383610a32565b91506110ae82611047565b604082019050919050565b600060208201905081810360008301526110d281611096565b9050919050565b60006110e4826109c4565b91506110ef836109c4565b92508282101561110257611101610e35565b5b828203905092915050565b60006060820190506111226000830186610ac0565b81810360208301526111348185610a87565b90506111436040830184610ac0565b94935050505056fea264697066735822122024a1d609f0f94f61fca3d0b524e32797b3547a86a374695d59502030db4418a464736f6c63430008090033",
  "immutableReferences": {},
  "source": "pragma solidity 0.8.9;\r\n\r\ncontract Election{\r\n    \r\n    //false: not voted \r\n    //true: voted\r\n    //model a Candidate\r\n    //struct for Candidates\r\n    \r\n\r\n    //events\r\n    event Regestering_candidate(uint256 candidate_id,  string name, uint256 total_vote);\r\n    event Voted(uint256 id);\r\n    event Leader(uint256 highest_votes, string name);\r\n    \r\n\r\n    //Entities\r\n\r\n    struct Candidate{\r\n        string name;\r\n        uint256 vote_count;\r\n        uint256 id;\r\n    }\r\n    \r\n    struct Lead{\r\n        string  name;\r\n        uint256 votes;\r\n    }\r\n\r\n    \r\n    //declarations\r\n    Lead public the_one;\r\n    \r\n    uint256 public candidates_count;\r\n    \r\n    address public contractOwner;\r\n    \r\n    constructor(){\r\n        contractOwner = msg.sender;\r\n    }\r\n    \r\n    \r\n    //mapping declarations to corresponding values\r\n    mapping(uint256 => Candidate)public Candidates;\r\n    mapping(address => bool) public voters;\r\n    mapping(address => bool) public candidate_exist;\r\n\r\n    \r\n    modifier onlyOwner(){\r\n        require(contractOwner == msg.sender, \"You are not authorised to proceed\");\r\n        _;\r\n        \r\n    }\r\n    \r\n    modifier already_voted(){\r\n        require(voters[msg.sender] ==  false, 'The vote has already been casted');\r\n        _;\r\n    }\r\n    \r\n    modifier candidate_registered(address _add){\r\n        require(candidate_exist[_add] == false, \"The candidate is already Registered\");\r\n        _;\r\n    }\r\n    \r\n    //store Candidate    \r\n    //fetch Candidate\r\n    //store candidate count\r\n    function add_candidate(address _add, string memory _name) public onlyOwner candidate_registered(_add) {\r\n        Candidates[candidates_count] = Candidate(_name, 0, candidates_count);\r\n        candidates_count++;\r\n        candidate_exist[_add] = true;\r\n        emit Regestering_candidate(candidates_count, _name, Candidates[candidates_count - 1].vote_count );\r\n    }\r\n    \r\n    // FUNCTION TO vote\r\n    function add_vote(uint256 _id) public already_voted(){\r\n        require(_id >= 0 && _id < candidates_count, \"Invalid option\");\r\n        voters[msg.sender] = true;\r\n        Candidates[_id].vote_count++;\r\n        emit Voted(_id);\r\n        // ,Candidates[_id].vote_count\r\n    }\r\n    \r\n    // FUNCTION TO FIND THE lead\r\n    function leader() public{\r\n        uint256 max_votes = 0;\r\n        string memory name = \"\";\r\n        for(uint256 i=0; i< candidates_count; i++){\r\n            if(max_votes < Candidates[i].vote_count){\r\n                max_votes = Candidates[i].vote_count;\r\n                name = Candidates[i].name;\r\n            }\r\n        }\r\n        the_one = Lead(name, max_votes);\r\n        emit Leader(max_votes, name);\r\n    }\r\n\r\n}\r\n",
  "sourcePath": "C:\\Users\\ituwei\\Desktop\\truffle-frontend\\contracts\\Election.sol",
  "compiler": {
    "name": "solc",
    "version": "0.8.9+commit.e5eed63a.Emscripten.clang"
  },
  "schemaVersion": "3.4.3",
  "updatedAt": "2021-10-26T06:34:08.977Z",
  "networkType": "ethereum",
  "devdoc": {
    "kind": "dev",
    "methods": {},
    "version": 1
  },
  "userdoc": {
    "kind": "user",
    "methods": {},
    "version": 1
  }
}