{
  "contractName": "Election",
  "abi": [
    {
      "inputs": [],
      "stateMutability": "nonpayable",
      "type": "constructor"
    },
    {
      "anonymous": false,
      "inputs": [
        {
          "indexed": false,
          "internalType": "uint256",
          "name": "highest_votes",
          "type": "uint256"
        },
        {
          "indexed": false,
          "internalType": "string",
          "name": "name",
          "type": "string"
        }
      ],
      "name": "Leader",
      "type": "event"
    },
    {
      "inputs": [
        {
          "internalType": "uint256",
          "name": "",
          "type": "uint256"
        }
      ],
      "name": "candidateDetails",
      "outputs": [
        {
          "internalType": "string",
          "name": "name",
          "type": "string"
        },
        {
          "internalType": "string",
          "name": "party",
          "type": "string"
        },
        {
          "internalType": "string",
          "name": "manifesto",
          "type": "string"
        },
        {
          "internalType": "uint256",
          "name": "voteCount",
          "type": "uint256"
        },
        {
          "internalType": "uint256",
          "name": "schoolId",
          "type": "uint256"
        },
        {
          "internalType": "uint256",
          "name": "candidateId",
          "type": "uint256"
        }
      ],
      "stateMutability": "view",
      "type": "function",
      "constant": true
    },
    {
      "inputs": [],
      "name": "owner",
      "outputs": [
        {
          "internalType": "address",
          "name": "",
          "type": "address"
        }
      ],
      "stateMutability": "view",
      "type": "function",
      "constant": true
    },
    {
      "inputs": [],
      "name": "the_one",
      "outputs": [
        {
          "internalType": "string",
          "name": "name",
          "type": "string"
        },
        {
          "internalType": "uint256",
          "name": "votes",
          "type": "uint256"
        }
      ],
      "stateMutability": "view",
      "type": "function",
      "constant": true
    },
    {
      "inputs": [
        {
          "internalType": "address",
          "name": "",
          "type": "address"
        }
      ],
      "name": "voterDetails",
      "outputs": [
        {
          "internalType": "address",
          "name": "voterAddress",
          "type": "address"
        },
        {
          "internalType": "string",
          "name": "name",
          "type": "string"
        },
        {
          "internalType": "string",
          "name": "voterId",
          "type": "string"
        },
        {
          "internalType": "uint256",
          "name": "schoolId",
          "type": "uint256"
        },
        {
          "internalType": "bool",
          "name": "hasVoted",
          "type": "bool"
        },
        {
          "internalType": "bool",
          "name": "isVerified",
          "type": "bool"
        }
      ],
      "stateMutability": "view",
      "type": "function",
      "constant": true
    },
    {
      "inputs": [
        {
          "internalType": "uint256",
          "name": "",
          "type": "uint256"
        }
      ],
      "name": "voters",
      "outputs": [
        {
          "internalType": "address",
          "name": "",
          "type": "address"
        }
      ],
      "stateMutability": "view",
      "type": "function",
      "constant": true
    },
    {
      "inputs": [],
      "name": "getOwner",
      "outputs": [
        {
          "internalType": "address",
          "name": "",
          "type": "address"
        }
      ],
      "stateMutability": "view",
      "type": "function",
      "constant": true
    },
    {
      "inputs": [
        {
          "internalType": "string",
          "name": "_name",
          "type": "string"
        },
        {
          "internalType": "string",
          "name": "_party",
          "type": "string"
        },
        {
          "internalType": "string",
          "name": "_manifesto",
          "type": "string"
        },
        {
          "internalType": "uint256",
          "name": "_schoolId",
          "type": "uint256"
        }
      ],
      "name": "addCandidate",
      "outputs": [],
      "stateMutability": "nonpayable",
      "type": "function"
    },
    {
      "inputs": [],
      "name": "getCandidateNumber",
      "outputs": [
        {
          "internalType": "uint256",
          "name": "",
          "type": "uint256"
        }
      ],
      "stateMutability": "view",
      "type": "function",
      "constant": true
    },
    {
      "inputs": [
        {
          "internalType": "string",
          "name": "_name",
          "type": "string"
        },
        {
          "internalType": "string",
          "name": "_voterId",
          "type": "string"
        },
        {
          "internalType": "uint256",
          "name": "_schoolId",
          "type": "uint256"
        }
      ],
      "name": "requestVoter",
      "outputs": [],
      "stateMutability": "nonpayable",
      "type": "function"
    },
    {
      "inputs": [],
      "name": "getVoterCount",
      "outputs": [
        {
          "internalType": "uint256",
          "name": "",
          "type": "uint256"
        }
      ],
      "stateMutability": "view",
      "type": "function",
      "constant": true
    },
    {
      "inputs": [
        {
          "internalType": "address",
          "name": "_address",
          "type": "address"
        }
      ],
      "name": "verifyVoter",
      "outputs": [],
      "stateMutability": "nonpayable",
      "type": "function"
    },
    {
      "inputs": [
        {
          "internalType": "uint256",
          "name": "candidateId",
          "type": "uint256"
        }
      ],
      "name": "vote",
      "outputs": [],
      "stateMutability": "nonpayable",
      "type": "function"
    },
    {
      "inputs": [],
      "name": "startElection",
      "outputs": [],
      "stateMutability": "nonpayable",
      "type": "function"
    },
    {
      "inputs": [],
      "name": "endElection",
      "outputs": [],
      "stateMutability": "nonpayable",
      "type": "function"
    },
    {
      "inputs": [],
      "name": "getStart",
      "outputs": [
        {
          "internalType": "bool",
          "name": "",
          "type": "bool"
        }
      ],
      "stateMutability": "view",
      "type": "function",
      "constant": true
    },
    {
      "inputs": [],
      "name": "getEnd",
      "outputs": [
        {
          "internalType": "bool",
          "name": "",
          "type": "bool"
        }
      ],
      "stateMutability": "view",
      "type": "function",
      "constant": true
    },
    {
      "inputs": [],
      "name": "leader",
      "outputs": [],
      "stateMutability": "nonpayable",
      "type": "function"
    }
  ],
  "bytecode": "0x608060405234801561001057600080fd5b50336000806101000a81548173ffffffffffffffffffffffffffffffffffffffff021916908373ffffffffffffffffffffffffffffffffffffffff160217905550600060018190555060006002819055506000600360006101000a81548160ff0219169083151502179055506000600360016101000a81548160ff0219169083151502179055506117e1806100a66000396000f3fe608060405234801561001057600080fd5b506004361061010b5760003560e01c806362d73eb8116100a25780639f05a36d116100715780639f05a36d14610264578063c5292c6714610282578063d10e6e2a146102a0578063d6aadfba146102bf578063da58c7d9146102db5761010b565b806362d73eb8146102025780637d9cf1961461020c578063893d20e8146102285780638da5cb5b146102465761010b565b806340eedabb116100de57806340eedabb146101845780635938750d1461018e57806359f78468146101c35780636247e532146101cd5761010b565b80630121b93f1461011057806309bd09501461012c57806311174a2914610148578063364dff2514610166575b600080fd5b61012a600480360381019061012591906110e1565b61030b565b005b6101466004803603810190610141919061116c565b610497565b005b61015061054d565b60405161015d91906111a8565b60405180910390f35b61016e610557565b60405161017b91906111a8565b60405180910390f35b61018c610561565b005b6101a860048036038101906101a3919061116c565b61070e565b6040516101ba96959493929190611286565b60405180910390f35b6101cb610894565b005b6101e760048036038101906101e291906110e1565b610924565b6040516101f9969594939291906112f5565b60405180910390f35b61020a610af8565b005b610226600480360381019061022191906114a0565b610b88565b005b610230610d66565b60405161023d919061152b565b60405180910390f35b61024e610d8f565b60405161025b919061152b565b60405180910390f35b61026c610db3565b6040516102799190611546565b60405180910390f35b61028a610dca565b6040516102979190611546565b60405180910390f35b6102a8610de1565b6040516102b6929190611561565b60405180910390f35b6102d960048036038101906102d49190611591565b610e7b565b005b6102f560048036038101906102f091906110e1565b610fb5565b604051610302919061152b565b60405180910390f35b60001515600860003373ffffffffffffffffffffffffffffffffffffffff1673ffffffffffffffffffffffffffffffffffffffff16815260200190815260200160002060040160009054906101000a900460ff1615151461036b57600080fd5b60011515600860003373ffffffffffffffffffffffffffffffffffffffff1673ffffffffffffffffffffffffffffffffffffffff16815260200190815260200160002060040160019054906101000a900460ff161515146103cb57600080fd5b60011515600360009054906101000a900460ff161515146103eb57600080fd5b60001515600360019054906101000a900460ff1615151461040b57600080fd5b6001600660008381526020019081526020016000206003016000828254610432919061167b565b925050819055506001600860003373ffffffffffffffffffffffffffffffffffffffff1673ffffffffffffffffffffffffffffffffffffffff16815260200190815260200160002060040160006101000a81548160ff02191690831515021790555050565b60008054906101000a900473ffffffffffffffffffffffffffffffffffffffff1673ffffffffffffffffffffffffffffffffffffffff163373ffffffffffffffffffffffffffffffffffffffff16146104ef57600080fd5b6001600860008373ffffffffffffffffffffffffffffffffffffffff1673ffffffffffffffffffffffffffffffffffffffff16815260200190815260200160002060040160016101000a81548160ff02191690831515021790555050565b6000600254905090565b6000600154905090565b60011515600360019054906101000a900460ff1615151461058157600080fd5b60008060405180602001604052806000815250905060005b60015481101561068f57600660008281526020019081526020016000206003015483101561067c57600660008281526020019081526020016000206003015492506006600082815260200190815260200160002060000180546105fb90611700565b80601f016020809104026020016040519081016040528092919081815260200182805461062790611700565b80156106745780601f1061064957610100808354040283529160200191610674565b820191906000526020600020905b81548152906001019060200180831161065757829003601f168201915b505050505091505b808061068790611732565b915050610599565b50604051806040016040528082815260200183815250600460008201518160000190805190602001906106c3929190610ff4565b50602082015181600101559050507fa131d2ca290202edeaf3d998ba980d702c79ff041d85fb96536ffb6152cd722b828260405161070292919061177b565b60405180910390a15050565b60086020528060005260406000206000915090508060000160009054906101000a900473ffffffffffffffffffffffffffffffffffffffff169080600101805461075790611700565b80601f016020809104026020016040519081016040528092919081815260200182805461078390611700565b80156107d05780601f106107a5576101008083540402835291602001916107d0565b820191906000526020600020905b8154815290600101906020018083116107b357829003601f168201915b5050505050908060020180546107e590611700565b80601f016020809104026020016040519081016040528092919081815260200182805461081190611700565b801561085e5780601f106108335761010080835404028352916020019161085e565b820191906000526020600020905b81548152906001019060200180831161084157829003601f168201915b5050505050908060030154908060040160009054906101000a900460ff16908060040160019054906101000a900460ff16905086565b60008054906101000a900473ffffffffffffffffffffffffffffffffffffffff1673ffffffffffffffffffffffffffffffffffffffff163373ffffffffffffffffffffffffffffffffffffffff16146108ec57600080fd5b6001600360016101000a81548160ff0219169083151502179055506000600360006101000a81548160ff021916908315150217905550565b600660205280600052604060002060009150905080600001805461094790611700565b80601f016020809104026020016040519081016040528092919081815260200182805461097390611700565b80156109c05780601f10610995576101008083540402835291602001916109c0565b820191906000526020600020905b8154815290600101906020018083116109a357829003601f168201915b5050505050908060010180546109d590611700565b80601f0160208091040260200160405190810160405280929190818152602001828054610a0190611700565b8015610a4e5780601f10610a2357610100808354040283529160200191610a4e565b820191906000526020600020905b815481529060010190602001808311610a3157829003601f168201915b505050505090806002018054610a6390611700565b80601f0160208091040260200160405190810160405280929190818152602001828054610a8f90611700565b8015610adc5780601f10610ab157610100808354040283529160200191610adc565b820191906000526020600020905b815481529060010190602001808311610abf57829003601f168201915b5050505050908060030154908060040154908060050154905086565b60008054906101000a900473ffffffffffffffffffffffffffffffffffffffff1673ffffffffffffffffffffffffffffffffffffffff163373ffffffffffffffffffffffffffffffffffffffff1614610b5057600080fd5b6001600360006101000a81548160ff0219169083151502179055506000600360016101000a81548160ff021916908315150217905550565b60006040518060c001604052803373ffffffffffffffffffffffffffffffffffffffff16815260200185815260200184815260200183815260200160001515815260200160001515815250905080600860003373ffffffffffffffffffffffffffffffffffffffff1673ffffffffffffffffffffffffffffffffffffffff16815260200190815260200160002060008201518160000160006101000a81548173ffffffffffffffffffffffffffffffffffffffff021916908373ffffffffffffffffffffffffffffffffffffffff1602179055506020820151816001019080519060200190610c78929190610ff4565b506040820151816002019080519060200190610c95929190610ff4565b506060820151816003015560808201518160040160006101000a81548160ff02191690831515021790555060a08201518160040160016101000a81548160ff0219169083151502179055509050506007339080600181540180825580915050600190039060005260206000200160009091909190916101000a81548173ffffffffffffffffffffffffffffffffffffffff021916908373ffffffffffffffffffffffffffffffffffffffff160217905550600160026000828254610d59919061167b565b9250508190555050505050565b60008060009054906101000a900473ffffffffffffffffffffffffffffffffffffffff16905090565b60008054906101000a900473ffffffffffffffffffffffffffffffffffffffff1681565b6000600360019054906101000a900460ff16905090565b6000600360009054906101000a900460ff16905090565b6004806000018054610df290611700565b80601f0160208091040260200160405190810160405280929190818152602001828054610e1e90611700565b8015610e6b5780601f10610e4057610100808354040283529160200191610e6b565b820191906000526020600020905b815481529060010190602001808311610e4e57829003601f168201915b5050505050908060010154905082565b60008054906101000a900473ffffffffffffffffffffffffffffffffffffffff1673ffffffffffffffffffffffffffffffffffffffff163373ffffffffffffffffffffffffffffffffffffffff1614610ed357600080fd5b60006040518060c00160405280868152602001858152602001848152602001600081526020018381526020016001548152509050806006600060015481526020019081526020016000206000820151816000019080519060200190610f39929190610ff4565b506020820151816001019080519060200190610f56929190610ff4565b506040820151816002019080519060200190610f73929190610ff4565b50606082015181600301556080820151816004015560a082015181600501559050506001806000828254610fa7919061167b565b925050819055505050505050565b60078181548110610fc557600080fd5b906000526020600020016000915054906101000a900473ffffffffffffffffffffffffffffffffffffffff1681565b82805461100090611700565b90600052602060002090601f0160209004810192826110225760008555611069565b82601f1061103b57805160ff1916838001178555611069565b82800160010185558215611069579182015b8281111561106857825182559160200191906001019061104d565b5b509050611076919061107a565b5090565b5b8082111561109357600081600090555060010161107b565b5090565b6000604051905090565b600080fd5b600080fd5b6000819050919050565b6110be816110ab565b81146110c957600080fd5b50565b6000813590506110db816110b5565b92915050565b6000602082840312156110f7576110f66110a1565b5b6000611105848285016110cc565b91505092915050565b600073ffffffffffffffffffffffffffffffffffffffff82169050919050565b60006111398261110e565b9050919050565b6111498161112e565b811461115457600080fd5b50565b60008135905061116681611140565b92915050565b600060208284031215611182576111816110a1565b5b600061119084828501611157565b91505092915050565b6111a2816110ab565b82525050565b60006020820190506111bd6000830184611199565b92915050565b6111cc8161112e565b82525050565b600081519050919050565b600082825260208201905092915050565b60005b8381101561120c5780820151818401526020810190506111f1565b8381111561121b576000848401525b50505050565b6000601f19601f8301169050919050565b600061123d826111d2565b61124781856111dd565b93506112578185602086016111ee565b61126081611221565b840191505092915050565b60008115159050919050565b6112808161126b565b82525050565b600060c08201905061129b60008301896111c3565b81810360208301526112ad8188611232565b905081810360408301526112c18187611232565b90506112d06060830186611199565b6112dd6080830185611277565b6112ea60a0830184611277565b979650505050505050565b600060c082019050818103600083015261130f8189611232565b905081810360208301526113238188611232565b905081810360408301526113378187611232565b90506113466060830186611199565b6113536080830185611199565b61136060a0830184611199565b979650505050505050565b600080fd5b600080fd5b7f4e487b7100000000000000000000000000000000000000000000000000000000600052604160045260246000fd5b6113ad82611221565b810181811067ffffffffffffffff821117156113cc576113cb611375565b5b80604052505050565b60006113df611097565b90506113eb82826113a4565b919050565b600067ffffffffffffffff82111561140b5761140a611375565b5b61141482611221565b9050602081019050919050565b82818337600083830152505050565b600061144361143e846113f0565b6113d5565b90508281526020810184848401111561145f5761145e611370565b5b61146a848285611421565b509392505050565b600082601f8301126114875761148661136b565b5b8135611497848260208601611430565b91505092915050565b6000806000606084860312156114b9576114b86110a1565b5b600084013567ffffffffffffffff8111156114d7576114d66110a6565b5b6114e386828701611472565b935050602084013567ffffffffffffffff811115611504576115036110a6565b5b61151086828701611472565b9250506040611521868287016110cc565b9150509250925092565b600060208201905061154060008301846111c3565b92915050565b600060208201905061155b6000830184611277565b92915050565b6000604082019050818103600083015261157b8185611232565b905061158a6020830184611199565b9392505050565b600080600080608085870312156115ab576115aa6110a1565b5b600085013567ffffffffffffffff8111156115c9576115c86110a6565b5b6115d587828801611472565b945050602085013567ffffffffffffffff8111156115f6576115f56110a6565b5b61160287828801611472565b935050604085013567ffffffffffffffff811115611623576116226110a6565b5b61162f87828801611472565b9250506060611640878288016110cc565b91505092959194509250565b7f4e487b7100000000000000000000000000000000000000000000000000000000600052601160045260246000fd5b6000611686826110ab565b9150611691836110ab565b9250827fffffffffffffffffffffffffffffffffffffffffffffffffffffffffffffffff038211156116c6576116c561164c565b5b828201905092915050565b7f4e487b7100000000000000000000000000000000000000000000000000000000600052602260045260246000fd5b6000600282049050600182168061171857607f821691505b6020821081141561172c5761172b6116d1565b5b50919050565b600061173d826110ab565b91507fffffffffffffffffffffffffffffffffffffffffffffffffffffffffffffffff8214156117705761176f61164c565b5b600182019050919050565b60006040820190506117906000830185611199565b81810360208301526117a28184611232565b9050939250505056fea264697066735822122015256ed0f40c700b39c6cab6b36391ab55791dfb7f97d45afdf16645bc6c568c64736f6c63430008090033",
  "immutableReferences": {},
  "source": "// SPDX-License-Identifier: GPL-3.0\r\n\r\n// pragma experimental ABIEncoderV2;\r\npragma solidity ^0.8.9;\r\n\r\ncontract Election{\r\n\r\n\r\n    \r\n    address public owner;\r\n    uint candidateCount;\r\n    uint voterCount;\r\n    bool start;\r\n    bool end;\r\n    Lead public the_one;\r\n\r\n    \r\n\r\n    // Constructor\r\n    constructor(){\r\n        owner = msg.sender;\r\n        candidateCount = 0;\r\n        voterCount = 0;\r\n        start = false;\r\n        end = false;\r\n    }\r\n    event Leader(uint256 highest_votes, string name);\r\n\r\n    function getOwner() public view returns(address) {\r\n        return owner;\r\n    }\r\n\r\n    // Only Admin can access\r\n    modifier onlyAdmin() {\r\n        require(msg.sender == owner);\r\n        _;\r\n    }\r\n\r\n    struct Candidate{\r\n        string name;\r\n        string party;\r\n        string manifesto;\r\n        uint voteCount;\r\n        uint schoolId;\r\n        uint candidateId;\r\n    }\r\n    \r\n    struct Lead{\r\n        string  name;\r\n        uint256 votes;\r\n    }\r\n\r\n    mapping(uint => Candidate) public candidateDetails;\r\n\r\n    // Only admin can add candidate\r\n    function addCandidate(string memory _name, string memory _party, string memory _manifesto, uint _schoolId) public onlyAdmin {\r\n        Candidate memory newCandidate = Candidate({\r\n           name : _name,\r\n           party : _party,\r\n           manifesto : _manifesto,\r\n           voteCount : 0,\r\n           schoolId : _schoolId,\r\n           candidateId : candidateCount\r\n        });\r\n\r\n        candidateDetails[candidateCount] = newCandidate;\r\n        candidateCount += 1;\r\n    }\r\n\r\n    // get total number of candidates\r\n    function getCandidateNumber() public view returns (uint) {\r\n        return candidateCount;\r\n    }\r\n\r\n    struct Voter{\r\n        address voterAddress;\r\n        string name;\r\n        string voterId;\r\n        uint schoolId;\r\n        bool hasVoted;\r\n        bool isVerified;\r\n    }\r\n\r\n    address[] public voters;\r\n    mapping(address => Voter) public voterDetails;\r\n\r\n    // request to be added as voter\r\n    function requestVoter(string memory _name, string memory _voterId, uint _schoolId) public {\r\n        Voter memory newVoter = Voter({ \r\n           voterAddress : msg.sender,\r\n           name : _name,\r\n           voterId : _voterId,\r\n           schoolId : _schoolId,\r\n           hasVoted : false,\r\n           isVerified : false\r\n        });\r\n\r\n        voterDetails[msg.sender] = newVoter;\r\n        voters.push(msg.sender);\r\n        voterCount += 1;\r\n    }\r\n\r\n    // get total number of voters\r\n    function getVoterCount() public view returns (uint) {\r\n        return voterCount;\r\n    }\r\n\r\n    function verifyVoter(address _address) public onlyAdmin {\r\n        voterDetails[_address].isVerified = true;\r\n    }\r\n\r\n    function vote(uint candidateId) public{\r\n        require(voterDetails[msg.sender].hasVoted == false);\r\n        require(voterDetails[msg.sender].isVerified == true);\r\n        require(start == true);\r\n        require(end == false);\r\n\r\n        candidateDetails[candidateId].voteCount += 1;\r\n        voterDetails[msg.sender].hasVoted = true;\r\n    }\r\n\r\n    function startElection() public onlyAdmin {\r\n        start = true;\r\n        end = false;\r\n    }\r\n\r\n    function endElection() public onlyAdmin {\r\n        end = true;\r\n        start = false;\r\n    }\r\n\r\n    function getStart() public view returns (bool) {\r\n        return start;\r\n    }\r\n\r\n    function getEnd() public view returns (bool) {\r\n        return end;\r\n    }\r\n\r\n    \r\n    //declarations\r\n    \r\n    // FUNCTION TO FIND THE lead\r\n    function leader() public{\r\n        require(end==true);\r\n        uint256 max_votes = 0;\r\n        string memory name = \"\";\r\n        for(uint256 i=0; i< candidateCount; i++){\r\n            if(max_votes < candidateDetails[i].voteCount){\r\n                max_votes = candidateDetails[i].voteCount;\r\n                name = candidateDetails[i].name;\r\n            }\r\n        }\r\n        the_one = Lead(name, max_votes);\r\n        emit Leader(max_votes, name);\r\n    }\r\n\r\n}",
  "sourcePath": "C:\\Users\\ituwei\\Desktop\\truffle-frontend\\contracts\\Election.sol",
  "compiler": {
    "name": "solc",
    "version": "0.8.9+commit.e5eed63a.Emscripten.clang"
  },
  "schemaVersion": "3.4.3",
  "updatedAt": "2021-12-06T09:36:30.245Z",
  "networkType": "ethereum",
  "devdoc": {
    "kind": "dev",
    "methods": {},
    "version": 1
  },
  "userdoc": {
    "kind": "user",
    "methods": {},
    "version": 1
  }
}